{
  "_format": "hh-sol-artifact-1",
  "contractName": "UsernameRegistry",
  "sourceName": "contracts/UsernameRegistry.sol",
  "abi": [
    {
      "anonymous": false,
      "inputs": [
        {
          "indexed": true,
          "internalType": "address",
          "name": "user",
          "type": "address"
        },
        {
          "indexed": false,
          "internalType": "string",
          "name": "username",
          "type": "string"
        }
      ],
      "name": "UsernameRegistered",
      "type": "event"
    },
    {
      "anonymous": false,
      "inputs": [
        {
          "indexed": true,
          "internalType": "address",
          "name": "user",
          "type": "address"
        },
        {
          "indexed": false,
          "internalType": "string",
          "name": "oldUsername",
          "type": "string"
        },
        {
          "indexed": false,
          "internalType": "string",
          "name": "newUsername",
          "type": "string"
        }
      ],
      "name": "UsernameUpdated",
      "type": "event"
    },
    {
      "inputs": [],
      "name": "REGISTRATION_FEE",
      "outputs": [
        {
          "internalType": "uint256",
          "name": "",
          "type": "uint256"
        }
      ],
      "stateMutability": "view",
      "type": "function"
    },
    {
      "inputs": [],
      "name": "UPDATE_FEE",
      "outputs": [
        {
          "internalType": "uint256",
          "name": "",
          "type": "uint256"
        }
      ],
      "stateMutability": "view",
      "type": "function"
    },
    {
      "inputs": [
        {
          "internalType": "address",
          "name": "",
          "type": "address"
        }
      ],
      "name": "addressToUsername",
      "outputs": [
        {
          "internalType": "string",
          "name": "",
          "type": "string"
        }
      ],
      "stateMutability": "view",
      "type": "function"
    },
    {
      "inputs": [
        {
          "internalType": "string",
          "name": "username",
          "type": "string"
        }
      ],
      "name": "getAddress",
      "outputs": [
        {
          "internalType": "address",
          "name": "",
          "type": "address"
        }
      ],
      "stateMutability": "view",
      "type": "function"
    },
    {
      "inputs": [
        {
          "internalType": "address",
          "name": "user",
          "type": "address"
        }
      ],
      "name": "getUsername",
      "outputs": [
        {
          "internalType": "string",
          "name": "",
          "type": "string"
        }
      ],
      "stateMutability": "view",
      "type": "function"
    },
    {
      "inputs": [
        {
          "internalType": "string",
          "name": "username",
          "type": "string"
        }
      ],
      "name": "registerUsername",
      "outputs": [],
      "stateMutability": "payable",
      "type": "function"
    },
    {
      "inputs": [
        {
          "internalType": "string",
          "name": "newUsername",
          "type": "string"
        }
      ],
      "name": "updateUsername",
      "outputs": [],
      "stateMutability": "payable",
      "type": "function"
    },
    {
      "inputs": [
        {
          "internalType": "string",
          "name": "",
          "type": "string"
        }
      ],
      "name": "usernameTaken",
      "outputs": [
        {
          "internalType": "bool",
          "name": "",
          "type": "bool"
        }
      ],
      "stateMutability": "view",
      "type": "function"
    },
    {
      "inputs": [
        {
          "internalType": "string",
          "name": "",
          "type": "string"
        }
      ],
      "name": "usernameToAddress",
      "outputs": [
        {
          "internalType": "address",
          "name": "",
          "type": "address"
        }
      ],
      "stateMutability": "view",
      "type": "function"
    }
  ],
  "bytecode": "0x6080604052348015600f57600080fd5b50610d828061001f6000396000f3fe6080604052600436106100865760003560e01c8063c96cea7011610059578063c96cea7014610121578063ce43c03214610134578063e07a0baa14610161578063f26e818a14610181578063f825f143146101cc57600080fd5b806336a941341461008b57806364b4f751146100a0578063bf0e120b146100ce578063bf40fac1146100e9575b600080fd5b61009e610099366004610a58565b61020d565b005b3480156100ac57600080fd5b506100bb66038d7ea4c6800081565b6040519081526020015b60405180910390f35b3480156100da57600080fd5b506100bb6611c37937e0800081565b3480156100f557600080fd5b50610109610104366004610a58565b610480565b6040516001600160a01b0390911681526020016100c5565b61009e61012f366004610a58565b6104b1565b34801561014057600080fd5b5061015461014f366004610b11565b610809565b6040516100c59190610b91565b34801561016d57600080fd5b5061015461017c366004610b11565b6108b5565b34801561018d57600080fd5b506101bc61019c366004610a58565b805160208183018101805160028252928201919093012091525460ff1681565b60405190151581526020016100c5565b3480156101d857600080fd5b506101096101e7366004610a58565b80516020818301810180516001825292820191909301209152546001600160a01b031681565b66038d7ea4c6800034101561025c5760405162461bcd60e51b815260206004820152601060248201526f496e73756666696369656e742066656560801b60448201526064015b60405180910390fd5b336000908152602081905260409020805461027690610ba4565b1590506102ba5760405162461bcd60e51b8152602060048201526012602482015271105b1c9958591e481c9959da5cdd195c995960721b6044820152606401610253565b6002816040516102ca9190610bde565b9081526040519081900360200190205460ff161561031b5760405162461bcd60e51b815260206004820152600e60248201526d2ab9b2b93730b6b2903a30b5b2b760911b6044820152606401610253565b600381511015801561032f57506014815111155b61036c5760405162461bcd60e51b815260206004820152600e60248201526d092dcecc2d8d2c840d8cadccee8d60931b6044820152606401610253565b6103758161094f565b6103b65760405162461bcd60e51b8152602060048201526012602482015271496e76616c6964206368617261637465727360701b6044820152606401610253565b3360009081526020819052604090206103cf8282610c49565b50336001826040516103e19190610bde565b908152602001604051809103902060006101000a8154816001600160a01b0302191690836001600160a01b0316021790555060016002826040516104259190610bde565b908152604051908190036020018120805492151560ff199093169290921790915533907f4afe13536e3149cddd8c9a8df1580cd5e909fd13c41e7dfead2e38d1141dad5d90610475908490610b91565b60405180910390a250565b60006001826040516104929190610bde565b908152604051908190036020019020546001600160a01b031692915050565b6611c37937e080003410156104fb5760405162461bcd60e51b815260206004820152601060248201526f496e73756666696369656e742066656560801b6044820152606401610253565b336000908152602081905260408120805461051590610ba4565b9050116105555760405162461bcd60e51b815260206004820152600e60248201526d139bdd081c9959da5cdd195c995960921b6044820152606401610253565b6002816040516105659190610bde565b9081526040519081900360200190205460ff16156105b65760405162461bcd60e51b815260206004820152600e60248201526d2ab9b2b93730b6b2903a30b5b2b760911b6044820152606401610253565b60038151101580156105ca57506014815111155b6106075760405162461bcd60e51b815260206004820152600e60248201526d092dcecc2d8d2c840d8cadccee8d60931b6044820152606401610253565b6106108161094f565b6106515760405162461bcd60e51b8152602060048201526012602482015271496e76616c6964206368617261637465727360701b6044820152606401610253565b336000908152602081905260408120805461066b90610ba4565b80601f016020809104026020016040519081016040528092919081815260200182805461069790610ba4565b80156106e45780601f106106b9576101008083540402835291602001916106e4565b820191906000526020600020905b8154815290600101906020018083116106c757829003601f168201915b505050505090506001816040516106fb9190610bde565b90815260405190819003602001812080546001600160a01b0319169055600290610726908390610bde565b9081526040805160209281900383019020805460ff191690553360009081529182905290206107558382610c49565b50336001836040516107679190610bde565b908152602001604051809103902060006101000a8154816001600160a01b0302191690836001600160a01b0316021790555060016002836040516107ab9190610bde565b908152604051908190036020018120805492151560ff199093169290921790915533907f13428138c872937c879d86da5f1947a7625d28588e4f7f2c44bcb70abbd77473906107fd9084908690610d08565b60405180910390a25050565b6001600160a01b038116600090815260208190526040902080546060919061083090610ba4565b80601f016020809104026020016040519081016040528092919081815260200182805461085c90610ba4565b80156108a95780601f1061087e576101008083540402835291602001916108a9565b820191906000526020600020905b81548152906001019060200180831161088c57829003601f168201915b50505050509050919050565b600060208190529081526040902080546108ce90610ba4565b80601f01602080910402602001604051908101604052809291908181526020018280546108fa90610ba4565b80156109475780601f1061091c57610100808354040283529160200191610947565b820191906000526020600020905b81548152906001019060200180831161092a57829003601f168201915b505050505081565b600081815b8151811015610a3857600082828151811061097157610971610d36565b01602001516001600160f81b0319169050600360fc1b81108015906109a45750603960f81b6001600160f81b0319821611155b806109d65750604160f81b6001600160f81b03198216108015906109d65750602d60f91b6001600160f81b0319821611155b80610a085750606160f81b6001600160f81b0319821610801590610a085750603d60f91b6001600160f81b0319821611155b80610a205750605f60f81b6001600160f81b03198216145b610a2f57506000949350505050565b50600101610954565b5060019392505050565b634e487b7160e01b600052604160045260246000fd5b600060208284031215610a6a57600080fd5b813567ffffffffffffffff811115610a8157600080fd5b8201601f81018413610a9257600080fd5b803567ffffffffffffffff811115610aac57610aac610a42565b604051601f8201601f19908116603f0116810167ffffffffffffffff81118282101715610adb57610adb610a42565b604052818152828201602001861015610af357600080fd5b81602084016020830137600091810160200191909152949350505050565b600060208284031215610b2357600080fd5b81356001600160a01b0381168114610b3a57600080fd5b9392505050565b60005b83811015610b5c578181015183820152602001610b44565b50506000910152565b60008151808452610b7d816020860160208601610b41565b601f01601f19169290920160200192915050565b602081526000610b3a6020830184610b65565b600181811c90821680610bb857607f821691505b602082108103610bd857634e487b7160e01b600052602260045260246000fd5b50919050565b60008251610bf0818460208701610b41565b9190910192915050565b601f821115610c4457806000526020600020601f840160051c81016020851015610c215750805b601f840160051c820191505b81811015610c415760008155600101610c2d565b50505b505050565b815167ffffffffffffffff811115610c6357610c63610a42565b610c7781610c718454610ba4565b84610bfa565b6020601f821160018114610cab5760008315610c935750848201515b600019600385901b1c1916600184901b178455610c41565b600084815260208120601f198516915b82811015610cdb5787850151825560209485019460019092019101610cbb565b5084821015610cf95786840151600019600387901b60f8161c191681555b50505050600190811b01905550565b604081526000610d1b6040830185610b65565b8281036020840152610d2d8185610b65565b95945050505050565b634e487b7160e01b600052603260045260246000fdfea264697066735822122037708e4552ad4654b3204c166536920b5132ab4a564d8bb4bdd31bcf5025f08f64736f6c634300081c0033",
  "linkReferences": {},
  "deployedLinkReferences": {}
}